:0400000076EF3CF06B
:10788E0001C04FF002C050F0120001C053F002C010
:10789E0054F0120001C051F002C052F01200026EFC
:1078AE0002506BEC3CF01200A8EC3CF062EC3CF0A9
:1078BE00BCEC3CF01200600ED36E000ED26E000EC9
:1078CE009B6E000E9A6E1200016E9EA871EF3CF038
:1078DE0073EF3CF06CEF3CF001C0ADFF120000EE18
:1078EE0029F0260EEE6AE806FDE1000EF86E0001A4
:1078FE008CEF3DF01C0E1C6E000E1D6E000E126EF7
:10790E00000E136E1AC014F01BC015F01C0E166E6E
:10791E00000E176EDBEC3CF012009EAA99EF3CF0C5
:10792E009BEF3CF094EF3CF0000E4E6EABA2A2EF3C
:10793E003CF0A4EF3CF0A6EF3CF0AB98AB88AE5019
:10794E001200000E896E000E8A6E000E8B6ECF0E28
:10795E00926E9368BF0E946E1F0E0F015D6F030E35
:10796E005C6F000E5B6FF18E1200080EA76E900E0C
:10797E00AB6E240EAC6E080EAF6E020E7D6E000E58
:10798E00016E000E026E4CEC3CF0000E016E000E0D
:10799E00026E51EC3CF0000E016E000E026E47ECD2
:1079AE003CF0000E4E6E120014C018F015C019F007
:1079BE00EFEF3CF012C00CF013C00DF0180E0E6E6F
:1079CE00000E0F6E16C010F017C011F002EC3DF055
:1079DE0018C0F6FF19C0F7FF0800F5500009D8A42B
:1079EE00FBEF3CF0FDEF3CF0E1EF3CF0000E136ED0
:1079FE00000E126E12000EC0D9FF0FC0DAFFDECFDE
:107A0E00F6FFDDCFF7FF0800F550250AD8A412EFD8
:107A1E003DF014EF3DF02CEF3DF00EC0D9FF0FC03E
:107A2E00DAFFDE2A000EDD22000E4A6E000E496ECF
:107A3E0049C04DF04B684C680EC0D9FF0FC0DAFF3D
:107A4E00DE2A000EDD2240EF3DF00EC0D9FF0FC042
:107A5E00DAFFDECFF6FFDDCFF7FF0800F550036E3D
:107A6E00046A0CC005F00DC006F041EC3DF023EFAA
:107A7E003DF0120005500610D8B448EF3DF04AEF25
:107A8E003DF053EF3DF005500610D8A451EF3DF0F8
:107A9E0053EF3DF058EF3DF0035056EC3CF08BEFBA
:107AAE003DF020EE09F00550D9260650DA22DE50C0
:107ABE00DE10D8B465EF3DF067EF3DF082EF3DF09C
:107ACE0020EE09F00550D9260650DA2210EE03F00A
:107ADE000550E1260650E222DE50E65CE650800AB2
:107AEE000B6EDE50800A0B58D8B080EF3DF082EF5F
:107AFE003DF08BEF3DF020EE03F00550D9260650F9
:107B0E00DA22DE2A000EDD2212005BEC3CF0000EC3
:107B1E00206E000E216E000E236E000E226E898ADC
:107B2E00030E1F6E8A0E1E6E560EE82EFED71E2EEA
:107B3E00FCD71F2EFAD7899A030E1F6E8A0E1E6E61
:107B4E00560EE82EFED71E2EFCD71F2EFAD7224A2F
:107B5E00232A23BEBCEF3DF0235009E1050E225C23
:107B6E00D8A0BCEF3DF0BEEF3DF096EF3DF0890E94
:107B7E001A6E7E0E1B6E81EC3CF04E0E1A6E7F0E50
:107B8E001B6E81EC3CF0EBEF3DF094EC3CF0286E7C
:107B9E006F0E2818D8B4D6EF3DF0D8EF3DF0E1EFD8
:107BAE003DF04F0E2818D8A4DFEF3DF0E1EF3DF089
:107BBE00E5EF3DF0010E206EEBEF3DF0510E1A6E2B
:107BCE007E0E1B6E81EC3CF02050D8B4F1EF3DF0F0
:107BDE00F3EF3DF0CCEF3DF0BB0E1A6E7D0E1B6E3B
:107BEE0081EC3CF0A50E1A6E7F0E1B6E81EC3CF004
:107BFE0094EC3CF0E806D8B407EF3EF009EF3EF007
:107C0E00FFEF3DF0000E256E000E246E898A060EE3
:107C1E001F6E130E1E6EAE0EE82EFED71E2EFCD756
:107C2E001F2EFAD7899A060E1F6E130E1E6EAE0EFB
:107C3E00E82EFED71E2EFCD71F2EFAD7244A252A51
:107C4E0025BE33EF3EF0255009E1050E245CD8A089
:107C5E0033EF3EF035EF3EF00DEF3EF01E0E1A6E96
:107C6E007F0E1B6E81EC3CF0AEEF3EF094EC3CF0E0
:107C7E00286E6F0E2818D8B447EF3EF049EF3EF04D
:107C8E0052EF3EF04F0E2818D8A450EF3EF052EFB0
:107C9E003EF056EF3EF0010E216EAEEF3EF06E0E50
:107CAE002818D8B45DEF3EF05FEF3EF068EF3EF07F
:107CBE004E0E2818D8A466EF3EF068EF3EF0A8EFFF
:107CCE003EF0ED0E1A6E7E0E1B6E81EC3CF0C80E71
:107CDE001A6E7F0E1B6E81EC3CF0000E276E000EAE
:107CEE00266E898A060E1F6E130E1E6EAE0EE82EBF
:107CFE00FED71E2EFCD71F2EFAD7899A060E1F6EA0
:107D0E00130E1E6EAE0EE82EFED71E2EFCD71F2EA5
:107D1E00FAD7264A272A27BE9EEF3EF0275009E1C2
:107D2E00050E265CD8A09EEF3EF0A0EF3EF078EF59
:107D3E003EF01E0E1A6E7F0E1B6E81EC3CF0AEEF07
:107D4E003EF0BB0E1A6E7E0E1B6E81EC3CF0215087
:107D5E00D8B4B4EF3EF0B6EF3EF03DEF3EF07D0E00
:107D6E001A6E7F0E1B6E81EC3CF00B0E1A6E7E0EA1
:107D7E001B6E81EC3CF0E80E1A6E7F0E1B6E81ECD2
:107D8E003CF081A0CDEF3EF0D1EF3EF01E6A1E2AF0
:107D9E00D2EF3EF01E6A1E3A1E4689501E18DF0BA9
:107DAE001E18896EC8EF3EF000EF00F0005375709C
:107DBE0065722C206D61696E74656E616E742061E2
:107DCE00707075796520737572206E27696D706F8E
:107DDE00727465207175656C6C6520746F7563685F
:107DEE0065206574206F627365727665206C612004
:107DFE0044454C2076657274652E0D0A00446F72F0
:107E0E00656E6176616E742C2073692074752061C5
:107E1E0070707579657320737572206C6520626F52
:107E2E0075746F6E205242302C206C612044454C8C
:107E3E00207665727465207327616C6C756D652E86
:107E4E000D0A00547520646F697320746170657239
:107E5E00206C6120746F75636865204F20736920F4
:107E6E0074752070657578206C6972652063652065
:107E7E006D6573736167652E0D0A000D0A0D0A4359
:107E8E006F75636F752C206327657374206C652086
:107E9E0050494331384632354B38302071756920A0
:107EAE007465207061726C6520210D0A0054752076
:107EBE00646F6973207461706572206C6120746FD9
:107ECE0075636865204F207369206C612044454CB2
:107EDE00206120636C69676E6F74652E0D0A005306
:107EEE0069206C612044454C206E276120706173BF
:107EFE0020636C69676E6F74652C2064656D616EAE
:107F0E006465206465206C27616964652E0D0A0026
:107F1E004573742D636520717565206C6120444531
:107F2E004C206120636C69676E6F74652035206626
:107F3E006F6973203F20284F2F4E290D0A0D0A001E
:107F4E004573742D63652071756520747520706599
:107F5E007578206C697265206365206D6573736139
:107F6E006765203F20284F2F4E290D0A0D0A004528
:107F7E007863656C6C656E742C207461206361721D
:107F8E00746520666F6E6374696F6E6E65206269CC
:107F9E00656E20210D0A00456C6C65206465767255
:107FAE0061697420636C69676E6F74657220352029
:107FBE00666F69732E0D0A0D0A0052656573736143
:107FCE00796F6E7320656E636F726520756E6520B6
:107FDE00666F69732E2E2E0D0A00416D7573652D19
:107FEE00746F69206269656E2E2E2E0D0A0D0A00C1
:017FFE000082
:020000040020DA
:08000000FFFFFFFFFFFFFFFF00
:020000040030CA
:0E00000015027F7CFF8991FF0FC00FE00F40BB
:00000001FF
