:04000000A2EF3CF03F
:1078D20027C04BF028C04CF0120027C04FF028C040
:1078E20050F0120027C04DF028C04EF01200286E52
:1078F200285097EC3CF01200D4EC3CF084EC3CF0C5
:10790200E8EC3CF01200600ED36E000ED26E000E58
:107912009B6E000E9A6E12009EBA92EF3CF095EFAB
:107922003CF0010E96EF3CF0000E1200276E9EA86E
:107932009DEF3CF09FEF3CF098EF3CF027C0ADFF8D
:10794200120000EE01F0260EEE6AE806FDE1000EDE
:10795200F86E0001B8EF3DF0420E426E000E436E2B
:10796200000E386E000E396E40C03AF041C03BF056
:10797200420E3C6E000E3D6E07EC3DF012009EAAD8
:10798200C5EF3CF0C7EF3CF0C0EF3CF0000E266EB6
:10799200ABA2CEEF3CF0D0EF3CF0D2EF3CF0AB9894
:1079A200AB88AE501200000E896E000E8A6E000E79
:1079B2008B6ECF0E926E9368BF0E946E1F0E0F01E8
:1079C2005D6F030E5C6F000E5B6FF18E1200080E8E
:1079D200A76E900EAB6E240EAC6E080EAF6E020E4A
:1079E2007D6E000E276E000E286E6EEC3CF0000ECF
:1079F200276E000E286E73EC3CF0000E276E000E10
:107A0200286E69EC3CF0000E266E12003AC03EF081
:107A12003BC03FF01BEF3DF038C032F039C033F0CD
:107A22003E0E346E000E356E3CC036F03DC037F06F
:107A32002EEC3DF03EC0F6FF3FC0F7FF0800F550C8
:107A42000009D8A427EF3DF029EF3DF00DEF3DF0FE
:107A5200000E396E000E386E120034C0D9FF35C0E8
:107A6200DAFFDECFF6FFDDCFF7FF0800F550250A7B
:107A7200D8A43EEF3DF040EF3DF058EF3DF034C06A
:107A8200D9FF35C0DAFFDE2A000EDD22000E226E9B
:107A9200000E216E21C025F02368246834C0D9FF6E
:107AA20035C0DAFFDE2A000EDD226CEF3DF034C075
:107AB200D9FF35C0DAFFDECFF6FFDDCFF7FF0800D2
:107AC200F550296E2A6A32C02BF033C02CF06DECCF
:107AD2003DF04FEF3DF012002B502C10D8B474EF54
:107AE2003DF076EF3DF07FEF3DF02B502C10D8A407
:107AF2007DEF3DF07FEF3DF084EF3DF0295078ECD3
:107B02003CF0B7EF3DF020EE09F02B50D9262C5077
:107B1200DA22DE50DE10D8B491EF3DF093EF3DF063
:107B2200AEEF3DF020EE09F02B50D9262C50DA2290
:107B320010EE03F02B50E1262C50E222DE50E65CE0
:107B4200E650800A316EDE50800A3158D8B0ACEF70
:107B52003DF0AEEF3DF0B7EF3DF020EE03F02B50DD
:107B6200D9262C50DA22DE2A000EDD2212007DEC0C
:107B72003CF0000E466E000E476E3D0E406E7F0ECC
:107B8200416EADEC3CF09F0E406E7F0E416EADEC4F
:107B92003CF0330E456EBB0E446EE00EE82EFED76F
:107BA200442EFCD7452EFAD7000E496E000E486EC1
:107BB200898A060E456E130E446EAE0EE82EFED76F
:107BC200442EFCD7452EFAD7899A060E456E130E1F
:107BD200446EAE0EE82EFED7442EFCD7452EFAD7C1
:107BE200484A492A49BEFFEF3DF0495009E1050ED6
:107BF200485CD8A0FFEF3DF001EF3EF0D9EF3DF039
:107C0200F40E406E7F0E416EADEC3CF054EF3EF050
:107C12008DEC3CF00009D8B411EF3EF013EF3EF0CA
:107C22004CEF3EF0C0EC3CF04A6E6F0E4A18D8B4EE
:107C32001DEF3EF01FEF3EF028EF3EF04F0E4A18C8
:107C4200D8A426EF3EF028EF3EF02EEF3EF0010ED4
:107C5200466E010E476E4CEF3EF06E0E4A18D8B4D7
:107C620035EF3EF037EF3EF040EF3EF04E0E4A1851
:107C7200D8A43EEF3EF040EF3EF046EF3EF0010E5C
:107C8200466E000E476E4CEF3EF0C20E406E7E0E08
:107C9200416EADEC3CF0410E446EEE0EE82EFED786
:107CA200442EFCD700D04650D8B45AEF3EF05CEFD9
:107CB2003EF009EF3EF04750D8B462EF3EF064EF79
:107CC2003EF078EF3EF0720E406E7E0E416EADECED
:107CD2003CF0670E406E7D0E416EADEC3CF0CA0E7C
:107CE200406E7F0E416EADEC3CF090EF3EF0D00E58
:107CF200406E7D0E416EADEC3CF0080E406E7F0E84
:107D0200416EADEC3CF0210E406E7E0E416EADEC4C
:107D12003CF06F0E406E7F0E416EADEC3CF0898AF6
:107D2200020E456E450E446EAA0EE82EFED7442E74
:107D3200FCD7452EFAD7899A190E456E190E446E54
:107D4200C20EE82EFED7442EFCD7452EFAD700D01D
:107D5200E00E406E7F0E416EADEC3CF090EF3EF0D7
:107D620000EF00F0004C612044454C206120626924
:107D7200656E20636C69676E6F74652C206C65207C
:107D8200504943206573742063617061626C6520A1
:107D92006427656E766F796572206574206465204C
:107DA20072656365766F697220646573206D6573B1
:107DB200736167657320737572206C61206C6961F1
:107DC20069736F6E2073657269652E0D0A004C65CA
:107DD20020504943206573742063617061626C6551
:107DE200206427656E766F796572206574206465FC
:107DF2002072656365766F697220646573206D65B4
:107E020073736167657320737572206C61206C698E
:107E12006169736F6E2073657269652E0D0A004188
:107E2200707075796520737572206C6520626F754C
:107E3200746F6E205265736574206F75206465627D
:107E420072616E6368652065742072656272616E2C
:107E5200636865206C27616C696D656E7461746915
:107E62006F6E2064652074612063617274652E00F8
:107E7200457863656C6C656E742C2073692074752B
:107E8200206C6973206365206D6573736167652C6F
:107E920020746120636172746520657420746120AE
:107EA200636F6E66696775726174696F6E20736F56
:107EB2006E7420636F727265637465732E0D0A00AF
:107EC200547520646F6973207461706572206C61EF
:107ED20020746F75636865204F207369206C612080
:107EE20044454C20766572746520636C69676E6FD9
:107EF2007465203520666F69732C204E2073696E7D
:107F02006F6E2E0D0A0050617220636F6E7472657F
:107F12002C207475206E2761732070617320767532
:107F2200206C612044454C20766572746520636C38
:107F320069676E6F7465722E0D0A000D0A0D0A4391
:107F42006F75636F752C206327657374206C6520D1
:107F520050494331384632354B38302071756920EB
:107F62007465207061726C6520210D0A00536920CE
:107F72006C652070726F626C656D652070657273DE
:107F8200697374652C2064656D616E646520646537
:107F9200206C27616964652E0D0A0D0A0045737411
:107FA2002D636520717565206C612044454C2076F7
:107FB2006572746520636C69676E6F746520352025
:107FC200666F6973203F2000416D7573652D746F74
:107FD20069206269656E2E2E2E0D0A0D0A00466911
:107FE2006E2064752070726F6772616D6D652E0D03
:0D7FF2000A00284F2F4E290D0A0D0A00002D
:020000040020DA
:08000000FFFFFFFFFFFFFFFF00
:020000040030CA
:0E00000015027F7CFF8991FF0FC00FE00F40BB
:00000001FF
